:020000041000EA
:1000000000B5324B212058609868022188439860DF
:10001000D860186158612E4B002199600221596106
:100020000121F02299502B49196001219960352056
:1000300000F044F80222904214D00621196600F024
:1000400034F8196E01211966002018661A6600F04E
:100050002CF8196E196E196E052000F02FF8012189
:100060000842F9D1002199601B49196000215960AB
:100070001A491B48016001219960EB211966A021F2
:10008000196600F012F800219960164914480160C1
:100090000121996001BC002800D000471248134993
:1000A000086003C880F30888084703B5996A0420EC
:1000B0000142FBD001200142F8D103BD02B5186610
:1000C0001866FFF7F2FF186E186E02BD00000240BE
:1000D000000000180000070000035F00212200005C
:1000E000F4000018222000A00001001008ED00E03C
:1000F00000000000000000000000000074B24E7A12
:1001000000200420F7010010C3010010C5010010F9
:10011000C1010010C1010010C1010010C101001097
:10012000C1010010C1010010C1010010C701001081
:10013000C1010010C1010010C9010010CB01001065
:10014000CD010010CD010010CD010010CD01001037
:10015000CD010010CD010010CD010010CD01001027
:10016000CD010010CD010010CD010010CD01001017
:10017000CD010010CD010010CD010010CD01001007
:10018000CD010010CD010010CD010010CD010010F7
:10019000CD010010CD010010CD010010CD010010E7
:1001A000CD010010CD010010CD010010CD010010D7
:1001B000CD010010CD010010CD010010CD010010C7
:1001C00000BE00BE00BE00BE00BE00BEEFF3058054
:1001D000103800BEF2EB8871082D00102C2D001095
:1001E0003402001090A31AE700201F49086006C8D7
:1001F00081F3088810471D48006800282FD10DA4FE
:100200000ECC002902D000F012F8F9E71849194A7B
:10021000002000E001C19142FCD1174988471749ED
:1002200088471749884700BEFDE701C901C29A42C5
:10023000FBD370472C2D0010C0000020CC0A0020FA
:100240003837001000000420000004203837001068
:10025000001004200010042000000000704709482E
:1002600001F082FC0047000008ED00E0000000D033
:10027000D00A0020E80E0020AD1900105503001030
:10028000D51A00105756000006005250ABB3605309
:100290007C2C001006005250861C03028C2C00108F
:1002A000060052505422A29D942C0010050052507A
:1002B000DE65F46838370010F8B5C0460448054BD1
:1002C00010B5834203D0044B002B00D0984710BDDB
:1002D000CC0A0020CC0A0020000000000648074994
:1002E000091A8B10C90FC91810B5491003D0044B57
:1002F000002B00D0984710BDCC0A0020CC0A00206B
:100300000000000010B5074C2378002B09D1FFF73F
:10031000D5FF054B002B02D0044800E000BF0123AD
:10032000237010BDD00B002000000000102C001026
:10033000054B10B5002B03D00449054800E000BF71
:10034000FFF7CCFF10BDC04600000000D40B00201A
:10035000102C001010B501F0A9FE01F0B7FF044801
:1003600001F090FFFA20800000F03AFDFAE7C04665
:1003700068020020094A830094464022634410B575
:100380001C68C0006240C024144080225201134304
:100390001C60034B9C466044416010BD04C001409A
:1003A00000400140024B18688007C00F7047C046EC
:1003B00000C00640F8B5EFF3108772B60E4E3368F2
:1003C000002BFCD0BFF35F8FCB08C4180725A446D1
:1003D000C45C01230D40AB4018002040234208D1EB
:1003E000624623431370BFF35F8F306087F310883A
:1003F000F8BD100001F072FB2C0100D00021044B6D
:10040000044ABFF35F8F02C39342FAD17047C046DC
:10041000000100D0800100D0044A1078431CDBB2F8
:10042000172B00D9102313707047C046B00100206D
:1004300001238340002904D0034A1360034A136058
:100440007047034A1360FBE780E200E000E100E050
:1004500080E100E0024B10309B688000C05870477C
:1004600000ED00E070B50D00EFF3108672B60F4A94
:100470001368002BFCD0BFF35F8F0D4B10309B68CF
:1004800084001B590B4A934203D09D4201D001F0D6
:100490003DFB074B9B681D51BFF35F8FBFF35F8F21
:1004A0000022024B1A6086F3108870BD240100D030
:1004B00000ED00E0CD010010F0B5DE4657464E4697
:1004C0004546E0B50C0083B0EFF3108972B6594A87
:1004D0001368002BFCD0BFF35F8F574B9A68030063
:1004E00010339F00D559554A9046954232D0A542C7
:1004F00043D0534EAA1B2F2A2CD801228240924669
:100500005146504A12681140019151464E4A1160BD
:10051000BFF35F8FEFF305829346002A33D10123A7
:100520002A009A4393689C4208D178E04B005B18FC
:100530009B00F3189968A1422AD01A00062151564F
:100540000029F3DA019B002B19D052463F4B1A6069
:100550003C4B1A60384B9B68DD51BFF35F8FBFF394
:100560005F8F0022334B1A6089F3108803B03CBCC4
:1005700090469946A246AB46F0BD1500EAE75246C2
:10058000314B1A60E6E79342C9D001F0BFFAC6E7E3
:1005900006215956002922DB4A00501880003418E1
:1005A0008046A0689860E079D8710620205698713E
:1005B000A0797F2824D8A488F01A6405241544441F
:1005C0000019E0240005400D2402204398805218B1
:1005D0001F4B9200B6181A781970B271B2E75946DB
:1005E00000290FD1FF3191711A49918018490A7879
:1005F0009A71194A9B1B5B415A43120D0A70A1E77D
:100600001648E3E7164A1749D21A083A5002400D35
:1006100001439980144952080A43DA8092E706217F
:10062000515613000029B7DA5A46002AEAD1454646
:10063000DCE7C046240100D000ED00E0CD01001051
:10064000B401002000E100E080E100E080E200E091
:10065000DD0C002001BDFFFFAAAA000001BD0000C3
:10066000EE01002000F0FFFF00F8FFFFF0B5EFF310
:10067000058101240443EFF3108672B6214A136802
:10068000002BFCD0BFF35F8F1F4B05001F4AED1AF4
:100690006D416A43120D1E4D8900AF6852B27F58FA
:1006A000A7421CD00621595691421CD012215956FE
:1006B000914222D01E215956914220D02A215956CA
:1006C0000324914210D0134B19781A708171BFF333
:1006D0005F8F00220B4B1A6086F31088F0BDAB6869
:1006E0000D4C5C50EFE700246100091989005B188C
:1006F000FF21997109499980E5E70124F4E7022473
:10070000F2E7C046240100D0B4010020AAAA0000EC
:1007100000ED00E0DD0C0020CD01001001BDFFFF69
:10072000054B064A1360064A136053609360D3601A
:1007300013615361936170478080808000E400E022
:1007400004E400E0024B9C4661448900016070476C
:100750004000003410B50400FFF75EFE01002000E9
:10076000FFF7F0FFFF232371BFF35F8F10BDC0467B
:1007700010B50400FFF750FE01002000FFF7E2FF74
:10078000FF23A380BFF35F8F10BDC04683680B4873
:1007900010B5844661446244090112019A1859183F
:1007A00054684B6801209C4201D802D00020C0B29E
:1007B00010BD12680B689A42F9D8F7E7FFFFFF0FE8
:1007C0000A4B1968EFF3108072B60A68002AFCD051
:1007D000BFF35F8F1B68BFF35F8F00221A6080F347
:1007E000108840BF002000217047C046C40C002084
:1007F000F8B5574645464E46DE46E0B599460CAB41
:1008000019780DAB1B78050090469A4607680029B9
:1008100012D1BE7B002E45D074003B68A419033C66
:100820001B195A783100BA73002A00D1FA730022DA
:100830009A705A701A7003E00E004C006418033C62
:100840002C4B00229C46AB6861449C464346090100
:1008500061440B604B464B600A9B8B600B9BCB60EB
:100860003B681B199A705A701A707B7B9B46002B51
:100870002CD032005946B8687B6898473A680028FF
:1008800017D05B4658465B005B441419033BA070CD
:10089000D118D35C002B00D063705B460E707B7365
:1008A000B34514D030003CBC90469946A246AB46B6
:1008B000F8BD5B465B005B44033BD3189E70111987
:1008C000125D002A00D05A705B460B707E73424660
:1008D0004B46287D00F098FB041E06D05346002BA3
:1008E00003D13100286800F0DDFD0E9B002BD9D02C
:1008F0001C70D7E7FFFFFF0FF0B5DE4657464E46A8
:1009000045460023E0B58BB00893664B8200D4586F
:1009100000239B46099000F017FB626806000F0059
:10092000EFF3108572B61368002BFCD0BFF35F8F16
:1009300023689C465B7B9946002B68D0A2685A4B83
:1009400090464B441B01984443461A685B6810006C
:100950001900801BB941002963DD099800F054FBA0
:1009600000230022984600230692079300239A460C
:100970006368BFF35F8F5A461A6085F31088534649
:10098000002B08D10028C6D10BB03CBC904699463C
:10099000A246AB46F0BD089B414618024B461843A1
:1009A000D047626806000F00EFF3108572B6136837
:1009B000002BFCD0BFF35F8F002F4FDB33003B4396
:1009C00002D02369002B60D12368DA7B002A07D08C
:1009D00051008A1819688C4649466244033A51709E
:1009E0009A7B002A01D14A469A734A46DA734B46EB
:1009F000E168013BCA5C0132CA545B46236163680B
:100A0000BFF35F8F5A461A6085F3108883E700238F
:100A100000229846002306920793002300209A465E
:100A2000A6E7002901D1002897D10021604600F0F7
:100A300097FC43461A685B680692079343469B6897
:100A40009A464346DB689846E3684B44013B1B7873
:100A500008931B0203432361002089E72369002BCD
:100A6000B2D0069A079B921BBB41002B15DB59465F
:100A70000491012103914946029141460191514659
:100A800020000091FFF7B4FEB7E700F05DFA3200F6
:100A90003B0012184B41002BE9DA0122034B524272
:100AA000E5E7C046B00C0020FFFFFF0FFFFFFF7F10
:100AB00010B5144C6368002B04D00A211248FFF7CC
:100AC00041FE10BD2300114A1021206800F062FB96
:100AD000032000F02DFA032000F008FB03200C494E
:100AE00000F04CFAFFF798FC0A4B9C460323237551
:100AF000D0231B061B6860446375074B8000606051
:100B0000DC60DAE7FC010020C40C00208D07001037
:100B1000F908001040000034B00C0020F0B5574632
:100B20004546DE464E46E0B585B0019310AB1B78D6
:100B300000270393002380469A46009243465A6852
:100B4000EFF3108972B61368002BFCD0BFF35F8FF0
:100B500043461D68AC7B002C4FD066002B683619CD
:100B6000033E9B195A78AA73002A00D1EA734246C1
:100B70009F705F701F7092684A4B94460099019A6B
:100B8000E3181B01634419605A600E9A9A600F9A29
:100B9000DA602B689B199F705F701F706B7B9B46A0
:100BA000002B46D022001900A8686B6898472A6875
:100BB000002831D05B4658465B005B449619033BE6
:100BC000B070D118D35C002B00D073705B460C70F2
:100BD0006B735C452ED04346DB681B19013B1878CC
:100BE00043465B68BFF35F8F1F6089F310885346ED
:100BF000002B2ED10002204307E05B68BFF35F8F1C
:100C00001C6089F310880120404205B03CBC90462E
:100C10009946A246AB46F0BD5B465B005B44033B96
:100C2000D3189C709119925D002A00D05A705B46CF
:100C30000B706C734346187D009A019B00F0E4F939
:100C400082460028C7D043462100186800F02AFCDD
:100C5000C1E7039B002B23D00E9B00200F999847E0
:100C6000030004000D000B431AD000290ADA009A91
:100C7000019B121BAB4100920193002B0ADB039BEB
:100C80009A465BE700F060F924184D410094019505
:100C9000002DF4DA0123044C5B4200930194EEE74B
:100CA0000020B2E7FFFFFF0FFFFFFF7F70B5426834
:100CB0000400EFF3108572B61368002BFCD0BFF36D
:100CC0005F8F2068CAB2437B93420AD0FF230B4058
:100CD0005E00F3180668B4466344033B9B78002B20
:100CE00013D0E668FF23B4460B406344013B090A76
:100CF0001E78C9B28E420DD000206368BFF35F8FAB
:100D000000221A6085F3108870BD22698A42F3D1EF
:100D10002361F1E7110000F0C5FBEEE7F0B5040038
:100D20000D0006267642F717C64636196F4100B504
:100D300084B08F4214D811D000F006F932003B0085
:100D4000121A8B41002B15DC002B3ED0200029000D
:100D500000F004F904B004BC9046F0BD8642EBD923
:100D60000026002700F0F0F832003B00121A8B41F9
:100D7000002BE9DD002302930193154B3200009311
:100D800014483B00FFF7CAFE0028DFDB002398462B
:100D9000BC46114A114F7B6A9C4504D8B96A8E4201
:100DA000D4D99C45D2D11168EFF3108072B60B688C
:100DB000002BFCD0BFF35F8F1368BFF35F8F4146FA
:100DC000196080F3108820BFE5E7002ABED0D1E784
:100DD000C1070010FC010020C40C002000400540A9
:100DE00070B5060000F0B0F8FA2204000D000023F0
:100DF00030000021920000F081FF001969410029B4
:100E000002DBFFF78BFF70BD012001494042F8E78C
:100E1000FFFFFF7F70B5EFF3058305000C0084B082
:100E2000002B0FD0104B0020596A8C4203D89B6ACC
:100E30000130AB4201D304B070BD641A611E8C4115
:100E4000E0B2F8E7094E02930193094B02000093C8
:100E500030000B00FFF762FE011EE3DD20BF300013
:100E6000FFF724FFDEE7C04600400540FC010020FC
:100E7000C1070010F0B5EFF30582D6464F4646464F
:100E80001000C0B51038EFF3108872B6214C2368FB
:100E9000002BFCD0BFF35F8F0123190081401E4D52
:100EA0001F006963AA461D4D29601D4D2E78AC4672
:100EB0003500C5402F402B4215D05346194D5F6A6F
:100EC00083005D59AF4218D3174A8E439B58624640
:100ED0001670BFF35F8F0022226088F31088002B0A
:100EE00006D0984704E0BFF35F8F276088F310882F
:100EF0001CBC90469946A246F0BD0C4B92009C4605
:100F0000624413681360BFF35F8F0023236088F38C
:100F10001088EDE7280100D0004005403C700540F6
:100F2000DE0C0020C80C0020200C0020D03F054023
:100F300010B50100024A0348FFF73CFA10BDC04655
:100F4000102C0010DC0C0020034B596A0A00986A30
:100F5000596A8A42FAD1704700400540064A536AEE
:100F60009942FCD807D1044B02E05A6A914202D15F
:100F70009A6A8242F9D370470040054070B5040078
:100F80000D00EFF3108672B61A4A1368002BFCD0DE
:100F9000BFF35F8F002D1BD02000FFF75BFA1649CF
:100FA00081420AD02000FFF75DFA01212000FFF7FF
:100FB0003FFA0123A340114A1360114BA400E550EE
:100FC000BFF35F8F00220B4B1A6086F3108870BD51
:100FD0000B4BA200D5500122A2400A4920000B78F9
:100FE00093430B700449FFF767FA00212000FFF7D5
:100FF0001FFAE5E7280100D0750E001038600540A3
:10100000200C0020DE0C0020F0B54F46D6464646A8
:10101000C0B50700304C616A0D00A66A616AA9423A
:10102000FAD18B4208D805D001201CBC90469946C5
:10103000A246F0BDB242F7D9EFF3108972B6274845
:1010400001680029FCD0BFF35F8F01252449BD4012
:101050008C460978204C0E002E438846F1B28A4611
:10106000614650460870391D1E48890065630A5163
:10107000B9000B50216A0020294219D0616A08008A
:10108000A66A616A8142FAD18B4219D801D1B24273
:1010900016D8C2451DD0104B1F201D625D63012371
:1010A0000740BB40104A1E381360634642461A7020
:1010B000BFF35F8F0022094B1A6089F31088B4E7F1
:1010C0000020BFF35F8F0022044B1A6089F3108861
:1010D000ABE70120ECE7C04600400540280100D006
:1010E000DE0C0020C80C002080E200E010B5EFF319
:1010F000108472B60A490B68002BFCD0BFF35F8FD7
:1011000001238340074A0848136202789A43027019
:10111000BFF35F8F00230B6084F3108810BDC046BF
:10112000280100D000400540DE0C002070B505000D
:101130000E001400002924D0002A24D080686B6897
:101140009847296800280ED063001B197200033BE2
:101150009219CB18033A9E7088188A5C002A14D121
:10116000047030000EE073009B196200033B1219FB
:10117000CB18033A9C7088188A5C002A00D05A70F9
:101180000670200070BD0800FCE75A700470300043
:10119000F8E7C04630B583600023CCB24373013317
:1011A000047342608373C4730D000068012C06D978
:1011B000421C0133DBB2137003329C42F9D1FF2190
:1011C00029404B005918002340180338437030BDA4
:1011D000F8B5CE46474606000C0080B5002907D07A
:1011E0004D0003686D18033D5A195778002F04D13C
:1011F00020000CBC90469946F8BD7900C919033906
:101200008846434459788946002159705170736863
:101210003A002100806898473368002814D042467D
:101220009A18947059195B5D002B00D053700F70A1
:10123000270049463000FFF7CBFF3900020030009D
:10124000FFF774FF0400D3E7424641465D19AF70D3
:101250009A185B5C002B00D06B701470E9E7C046F5
:10126000F0B557464546DE464E46E0B50D006B00EC
:1012700001685B19DF1E0400C85D83B00192CA19C2
:10128000002850D043001B18033BCB185E78B446AF
:10129000002E1AD1019E002E42D0E67B002E04D0F3
:1012A00073009B19CB18033B5D70A37B002B00D10F
:1012B000A573E57300282FD10023537003B03CBC05
:1012C00090469946A246AB46F0BD72006244033A8E
:1012D00089184A78904600224A7091465A70010057
:1012E00032002000FFF722FF43468246002B07D042
:1012F0005B0021684344033BCB185A78002A16D17F
:10130000424651462000FFF711FF2168019BCA1990
:10131000002BC2D10028CFD043001B18033BCB18B1
:1013200000219970C8E7019B002BB6D1C4E750009B
:101330008018033809184878834648464870587022
:1013400041462000FFF7F2FE594680462000FFF795
:101350003FFF414602002000FFF7E8FE8046CFE74E
:10136000F0B54E464546DE465746E0B5467B04009E
:1013700075000068AD19033D83B00191415D4219CC
:10138000002952D04B005B18033BC3185F78BC4662
:10139000002F1CD1019D002D44D0E57B002D04D0F1
:1013A0006B005B19C318033B5E70A37B002B00D15D
:1013B000A673E673002931D10023300053706173A6
:1013C00003B03CBC90469946A246AB46F0BD7A00BD
:1013D0006244033A80184278934600224270914654
:1013E0005A7020003A00FFF7A1FE5B468046002BB2
:1013F00007D05B0021685B44033BCB185A78002A76
:1014000017D15A4641462000FFF790FE019B01008C
:1014100020684219002BC0D10029CDD04B005B18A9
:10142000033BC31800209870C6E7019B002BB4D182
:10143000C2E75000801803380918487882464846A9
:101440004870587059462000FFF770FE5346834697
:10145000002B07D05B0021685344033BCB185A781C
:10146000002A06D1594652462000FFF75FFE834608
:10147000C7E7500080180338091848464F7848706D
:10148000587051462000FFF751FE39008146200078
:10149000FFF79EFE494602002000FFF747FE824606
:1014A000E0E7C04670B5040000292CD0437B8B4296
:1014B0002ED0056848004018033828188278002A82
:1014C00021D053009B18033BEA5CEE188A4202D1FC
:1014D0001BE0002A08D053009B18033BEB185A78F6
:1014E0008A42F6D142785A700023012283704370F9
:1014F0002000FFF7B5FE617B02002000FFF716FE1B
:101500006073012000E0002070BD43783370EBE78A
:1015100001221900FFF7A4FE60730120F4E7C04622
:10152000F8B5040006200D0000F0CAF9002845D0E7
:101530002B4B2C49E3185A4253418022D203944644
:101540005B421340284A63441360284A1360180022
:101550008A689043FBD1224B8021E3185A425341C1
:10156000234A5B0049000620995200F0A9F929009E
:10157000C00000F027FBC30921D14027012226002B
:1015800080256262A36200232C36AD0135432B60B7
:10159000062000F095F93900800000F013FB60236D
:1015A000E26A53406E221A4080235B0133431A6083
:1015B000104B236310232B600D3BA364F8BD0E4A30
:1015C000934203D900230D4F0D4AD8E77F221040E4
:1015D000013040089F011A003F180300CFE7C046C2
:1015E0000080FCBF00C0004000E0004000F0004070
:1015F000E00C002001030000FEFF0000C0FF3F00E0
:10160000FFFF000030B50C2083B000F0B3F9FEF707
:10161000C9FE00280ED0944B944A1A605A609A6012
:10162000DA601A615A619A61DA611A62904A5A6202
:1016300003B030BD8F4CA06700F0A4F901228E4B9F
:101640001A60636C012BFCD103228C4B1A60894A0F
:10165000936B012BFCD101330121894A8948009306
:10166000043300F033F90523874A009301218748AA
:1016700000F02CF9864B5A68FF2A02D880225200CB
:101680005A608022784C7D4B21691201804D1A608E
:10169000002905D0606900F095FA01300138FDD1CC
:1016A000E0217B4B02201A681140802252012A431C
:1016B00011601968484003210140116004219A68B3
:1016C0001142FCD08022802192012A43090111603D
:1016D000802252005A606F4B23616F4B5968FF297B
:1016E00000D85A6003226C48634B01211A60020043
:1016F00093681942FCD0E02513681D4080235B01EC
:1017000003431D6012684A40032111401960022101
:10171000614A93681942FCD0802380219B010343D6
:101720000901196080215D4B4900516063615C4B88
:101730005A68FF2A00D8596080225A4BE169120189
:10174000574D1A60002905D0606900F03BFA01305E
:101750000138FDD1E02252490B681A4080235B0119
:101760002B431A60802380229B012B4312011A60B5
:1017700080223E4B52004A60E3614B4B5968FF297F
:1017800000D85A608022494B216A1201464D1A60E6
:10179000002905D0606900F015FA01300138FDD14B
:1017A000E02241490B681A4080235B012B431A60F9
:1017B000802380229B012B4312011A608023802208
:1017C0005B004B60294BD2022362394B596891422E
:1017D00000D25A608022374B616A1201344D1A6080
:1017E000002905D0606900F0EDF901300138FDD124
:1017F000E0222F490B681A4080235B012B431A60BB
:10180000802380229B012B4312011A608023DB027C
:101810004B60174B6362284B5A68FF2A02D880221C
:1018200052005A608022254BA1691201224D1A6094
:10183000002905D0606900F0C5F901300138FDD1FB
:10184000E0221D490B681A4080235B012B431A607C
:10185000802380229B012B4312011A6080235B00AE
:101860004B600E4BA361E3E6380C0020006CDC02F9
:101870001BB70000008000403CB0004030B000408A
:10188000002F685900800240008C864700C002404B
:1018900030800040001BB7003C8000404059730777
:1018A0005480004054B000406080004060B0004070
:1018B0006C8000406CB000404880004048B0004060
:1018C000014B8000C0587047380C0020F8B5040068
:1018D0000C2017001D000E0000F074F94101091AD8
:1018E0008B01591AC90009188901380000F06AF9FA
:1018F000069A2B04120313432268002A21DB194A9B
:10190000A21851424A41802149018C4652420A4064
:10191000154962440A6015490A60154917008D6827
:10192000AF43FBD1C021221D890111432122266032
:10193000A0600A602268002AFCDAE36008230B60DA
:10194000F8BD3F2221680A40B242D8D1A2681205F0
:10195000120D8242D3D1EE21E268C9020A409A42B6
:10196000CDD1EDE70040FDBF00E0004000F00040B9
:1019700000C000408023024A9B000343D3627047AB
:1019800000800540AA23064A1B0113602F23054946
:10199000D360054B19605368002BFCDA7047C046D2
:1019A0000040024000B0FA00006002402C4B2D4A7B
:1019B00070B51A602C4A2D4B2D491A6010008B68A7
:1019C0009843FBD12B4C2C4B9C4209D2013B1D1B55
:1019D000AD080135AD002D1908CC9847AC42FBD1BC
:1019E000FFF710FE254A214B1A60214A9368DB015C
:1019F0008033FBD14022224B224C234D9A675A67F9
:101A00001A67DA66AC4208D223682000002B21D086
:101A10000834FEF7ADFEAC42F6D31C4C1C4DA16859
:101A2000C022280000F0E6F9A560FEF7E7FCFEF70B
:101A300077FEFFF73DF8174C174B9C4209D2013B4C
:101A40001D1BAD080135AD002D1908CC9847A542E6
:101A5000FBD170BD0834FEF77DFEAC42D4D3DCE789
:101A600000E00040BFCDFBFEFE7F3C0000F00040E8
:101A700000C00040B80A0020C80A0020FFFFFF0194
:101A800000F00140B00A0020B80A002000ED00E09C
:101A900000000020C80A0020CC0A002000BEFDE79C
:101AA000094A03001068002805D00849C3188B4272
:101AB00007D81360704706480449C31810608B426A
:101AC000F7D901204042F5E7A80C002000000420CF
:101AD000E80E002010B5FFF7E1FFC0460FB400B5D7
:101AE000084883B000F0ACFA049B002B07D005A98E
:101AF0001800019100F018F8034800F0A1FA012045
:101B0000FFF7CCFF342C0010442C001010B5014816
:101B1000FFF7E4FF482C001010B5002800D110BDDD
:101B200000F042FAFBE7C04610B5094A030014680A
:101B300084B0002C08D0012200910648524203A92B
:101B4000A047012004B010BD00F07AFA0020F9E7A8
:101B5000AC0C0020191B001001480421014B184750
:101B600030020020891B0010142310B501001888D2
:101B700004331B88984710BD162310B50100188840
:101B800002331B88984710BDF0B5C64600B5002942
:101B900016D01423040001259846182789004618FA
:101BA0004346216818883B88984701C4431E9841E2
:101BB00040420540A642F3D1280004BC9046F0BD47
:101BC0000125F9E7114A936F9B0813D210665166FD
:101BD000002905D0FFE7FFE7FFE7516F106F70475F
:101BE00004B5002801D00020C04301F001F8002115
:101BF00004BDC046F0B5146E556E576F166FFFF7F3
:101C0000E5FF1466556657671667F0BD000000D003
:101C1000132370B51D78012D15D010DD2748FFF76F
:101C2000ABFF274C01008022200000F0E3F8022DDA
:101C300006D02448FFF798FF234B186070BD204C56
:101C4000224AA264F5E72E001D4C204AA3085B42FD
:101C50001E401D422FD0330022602020B1006118A9
:101C6000801B0A604A608A60CA600A614A618A61B0
:101C7000CA610A624A628A62CA620A634A638A6302
:101C8000CA630A644A648A64CA640A654A658A65E2
:101C9000CA650A664A668A66CA660A674A6740086B
:101CA000102803D18A67CA67A264C2E71E339B006B
:101CB000E250A264BDE70023CFE7C04653440000D2
:101CC000E40C00204C330000C00C0020D11C00109C
:101CD00007B5604601880A0A0230DF2AFAD1C9B284
:101CE000820804D3028840880004104300E00068A2
:101CF000014A5050039007BDE40C00205143434378
:101D0000C9188C46110C83B24B4310B4040C6143C8
:101D100092B280B2504362431C041B0C001910BCE9
:101D200059411304120CC01851416144704700001E
:101D3000132310B512481C78FFF71EFF0100012C79
:101D40000AD003DD80220F4800F054F80E48FFF758
:101D50000BFF0E4B186010BD0A4C5422200000F0FF
:101D600049F80B4B6365A365E36523666366A36669
:101D7000E36623676367A367E3672362E361E5E7DD
:101D800053460000E40D00204C330000C00C00203E
:101D9000951D001007B5604601880A0A0230DF2A47
:101DA000FAD1C9B2820804D30288408800041043E3
:101DB00000E00068014A5050039007BDE40D002088
:101DC00010B5040000F0A8FA002804D0034B041951
:101DD0009C4200D810BD0248FFF780FE000004209E
:101DE000542C001001480421014B184740020020E8
:101DF000891B0010014B5B6818470000400200205F
:101E0000030010B508001B681100984710BDC046BC
:101E1000F8B54746CE4680B5437D07000D00160055
:101E2000002B37D000240020002A1EDD4B1E9846D0
:101E30001B4B9946002C2BD043461B5D0D3B5A4251
:101E40005341DBB22A5D0A2A13D00134A642F1DCE9
:101E5000864203DD311A3B6828189847AD19013DC9
:101E60002B780D3B5A4253413B750CBC904699462A
:101E7000F8BD002BE9D1A04203DA211A3B682818EB
:101E80009847484602213B68013498472000DDE727
:101E90003B7DD7E70368110028009847E5E7C04677
:101EA000C42C0010F0B5DE4657464E464546E0B518
:101EB00085B017001C0006000D00FFF745F8002351
:101EC000324A12184B41002B5BDB314908008A462D
:101ED00000F096FE01906B1C03D1300000F00CFD69
:101EE0000500002C28D12B4B98462B4B1C68002C4E
:101EF00015D0002F23D1294F02E02469002C0ED0E9
:101F00002368002BF9D03B68002B01D0A342F4D109
:101F100020002A003100C0472469002CF0D1019B29
:101F2000002B2AD1681E8541E8B205B03CBC904622
:101F30009946A246AB46F0BD194B9846D5E7174BDC
:101F4000994602ABDF1D0A239B4602E02469002C60
:101F5000E5D02368002BF9D04B461B68002B01D03D
:101F6000A342F3D12A0031002000C0475B46012282
:101F7000390020003B70C047E8E7504600F030FED3
:101F8000D0E70122074B52429FE7C04640420F0074
:101F9000B00A0020111E0010A00C0020A40C00208C
:101FA000011E0010FFFFFF7FF0B5CE46474680B50B
:101FB00083B06B460500DE1D3070FEF7C5FF0023C1
:101FC0001A4A12184B41002B2CDB1949080088468D
:101FD00000F016FE174B07001C68002C16D0164B9D
:101FE000994602E02469002C10D02368002BF9D018
:101FF0004B461B68002B01D0A342F3D120000122E5
:102000003100FFF705FF2469002CEED1002F05D128
:10201000280003B00CBC90469946F0BD404600F045
:10202000DFFDF5E70122054B5242CEE740420F00AB
:10203000B00A0020A00C0020A40C0020FFFFFF7FAE
:1020400070B5040000F058FC0023010005000122D7
:102050002000FFF727FF084B1C68002C06D06368A0
:10206000002B05D098472469002CF8D1280070BDBA
:102070002469002CF3D1F9E7A00C00200A4A136868
:10208000002B05D10CE01A001B691032002B07D081
:102090009842F8D1002902D10369136001617047A9
:1020A0000029FCD01060FAE7A00C002010B500F069
:1020B000C5F8012010BDC046F0B50D1E15DD0E4B54
:1020C0000D271A680D4B4519D31859424B410C493D
:1020D0005B005E5E20210478A64207D09369194216
:1020E000FCD101301460A842F5D1F0BD93691942CA
:1020F000FCD11760F2E7C046D80C00200080FCBF7E
:10210000E00C002030B50500002926DD0020102459
:102110001B4B013D1A6893691C4219D10130936928
:102120001C42FCD113682B548142F4D1154B1B681F
:10213000002B0CD050239363516B183B34320B406F
:102140001100802252010A431360002815D030BDCF
:102150000C4B1B68002BEDD1F7E70A4B1B68002BDB
:102160000BD050223821064B1B689A635A6B3433CC
:102170001140802252011343196003204042E6E7D8
:10218000D80C0020300C0020064B10B51B68002B2B
:1021900006D00021044A12689163044A10689847E7
:1021A00010BDC046300C0020D80C0020340C00209C
:1021B0001D4BF0B51A68C64698461C4B0E00D31846
:1021C00059424B411A4F14331C00050000B53B68BF
:1021D000002807D0002B11D0164B3D601E6004BCB8
:1021E0009046F0BD002BF7D0906300212000FEF751
:1021F0001FF920001049FEF75FF9EDE720000E49B6
:10220000FEF730F901212000FEF712F94346502273
:1022100038211B689A635A6B343311408022520173
:1022200013431960D8E7C046D80C00200080FCBFDB
:10223000300C0020340C00208921001010B50C4B0C
:102240000C4C1B780C4B02211B780C4B002023609C
:10225000FEF790F802210120FEF78CF8E1212068BA
:102260004902FFF75DF901210548FFF707FF10BD9F
:10227000242D0010D80C0020282D00100040034011
:102280005002002010B504001020FFF799FD002334
:102290000360436000230381C46010BD0A4A10B587
:1022A0009369DB060ED400290CDD441810219369D4
:1022B0001942FCD1136803709369194202D10130AD
:1022C000A042F4D110BDC04600400340E12110B54A
:1022D0000E4C49022000FFF723F902210020FEF7EF
:1022E00049F802210120FEF745F820000849FEF7D1
:1022F000B9F820000121FEF79BF85023A363626B1D
:10230000183B1340034A0120136010BD00400340F6
:102310009D2200103450034010B5034B0100186893
:1023200000F00EF810BDC0467002002010B5034B3F
:102330000100186800F064FB10BDC0467002002068
:10234000F0B557464546DE464E46E0B50D000B3526
:1023500083B00700162D22D8102900D9BBE000F069
:10236000B5FA102518230220D14EF3181A005C6824
:10237000083A944200D1BEE0032362689A431300F6
:10238000E268A168CA6091600122E31859683800C8
:102390000A435A6000F09CFA200008309EE00723B0
:1023A0009D4300D597E0A94200D994E000F08EFA51
:1023B000F823FF339D4200D8ADE1680A00D194E0D4
:1023C000042800D980E138239846A8098044393090
:1023D000C100B74E71180839CC68A14218D0032348
:1023E00062689A431300521B0F2A00DD36E1002A6F
:1023F000C6DA03239C4608E06246636893435A1B8F
:102400000F2A00DD2AE1002ABADAE468A142F3D1FA
:10241000320034690832944200D177E003236168C6
:10242000994389460B00491B0F2900DD77E1726152
:1024300032610029A8DA9F4A914500D910E1DA08F3
:10244000012391108B40D200716892190B4391685F
:102450007360E260A1609460CC60012182109140C1
:10246000994259D80B4205D10322904349000430C8
:102470000B42FBD003239846C3009946B144CC4697
:1024800082466346DC68A44507D129E1002A00DBC7
:1024900032E1E468A44500D122E1424663689343F7
:1024A0005A1B0F2AF2DD0120804661190543656041
:1024B000A068E5680836C560A8604046F160B16074
:1024C00010434860CE608E603800E25000F000FAA1
:1024D0002000083002E00C2300203B6003B03CBC2D
:1024E00090469946A246AB46F0BD80213F23890025
:1024F000402098466DE7DC680230A34200D03BE7FD
:10250000320034690832944200D087E701217368B1
:10251000821091409942A5D90323B46862689A4316
:102520009046AA4203D3531B0F2B00DD88E0230003
:102530004344614A0193614B93469A4612681B6873
:10254000EB18013200D139E15D4A944663441B0B1C
:102550001B0300930099380000F0BCF9030081468A
:10256000013300D1F6E0019B834200D9F0E05146EF
:102570004968009B8C46514663444B6001991A00A0
:10258000494500D14FE15B461B68013300D154E15E
:102590004B4601995B1A9A1853465A6007234A46DC
:1025A0001A40019200D113E108214B4689469B1A3B
:1025B00099440099434B49449B1A5B1A1B051B0D18
:1025C0000091380019009B4600F084F9431C00D1AB
:1025D0004FE14B46C01A03005B44009353465246FA
:1025E0005B6801215B4453604A464846B260009AEA
:1025F0000A434260B44200D123E142460F2A00D888
:1026000021E107200C3A8243606801400520114314
:102610006160A118486088600F2A00D934E14A46F9
:102620004C4652685146C96A994201D25146CB6222
:102630005146096B994200D38EE051460B638BE003
:102640000122290013431143651961603800B56008
:102650006B6000F03DF9200008303FE74046D7E6C8
:102660005A0A042A6ED9142A00D9C1E011005C323A
:102670005B31D20008235B429C46B2189444634607
:102680009A6803239846944500D19AE043465168DE
:102690009943494502D992689445F7D1D3689C463D
:1026A00073686146A260E1608C60D460D5E6C04684
:1026B000A8060020FF010000A0060020EC0B00206F
:1026C0000F10000008100000142852D9542800D917
:1026D00096E06E239846280B80446F30C10078E660
:1026E00008239B46073BDC449B46DA44434652465C
:1026F000134200D0C5E64CE00122E31859683800C7
:102700000A435A60E368A268D3609A6000F0E0F878
:1027100020000830E2E62B00E808083324E6012315
:1027200060191D43656070613061C26082601A008B
:102730004B460A4342603800E15000F0C9F82000DF
:102740000830CBE69A09110039323831D20091E7CE
:10275000B44260D0B468626803239A43531BAA4210
:1027600002D30F2B00DD6BE7380000F0B1F800203A
:10277000B4E65B23984680445C30C10029E6082318
:102780005B429C46E1444B469B6801384B4500D078
:1027900097E043460342F2D173688B43736049006C
:1027A000994200D9B8E6002904D1B5E6042294463E
:1027B0004900E2440B42F9D050465DE610330093E5
:1027C000C8E68910023B8B4071680B43736068E771
:1027D000009B38004B441B055B421B0D19009B46B8
:1027E00000F078F8431C00D0F3E600239B46F5E6A2
:1027F000542A2AD81A0B11006F326E31D20039E7F1
:10280000AA235B0098422AD8DD3B9846E80B804417
:102810007830C100DDE553465B68009A9C4653461C
:1028200062445A60AFE6090500D0ACE6009AB4688D
:10283000424401310A436260F4E65B464A461A604C
:10284000ACE64C46EEE641608EE7AA2149008A429A
:1028500024D8DA0B110078327731D2000AE71A4B0C
:10286000984224D87C239846A80C80447D30C1002F
:10287000AFE5009A019B94464A46083B63449B1A85
:10288000009300239B46A9E621003800083100F0A0
:10289000B7F85346B4685B686268C3E60A498A427F
:1028A0000BD89A0C11007D327C31D200E2E6FE2179
:1028B0007E2389007F2098468BE5FE227E219200B0
:1028C000D8E673686BE7C046540500007047C04601
:1028D0007047C046002370B5064C05000800236011
:1028E000FFF7DEF8431C00D070BD2368002BFBD03F
:1028F0002B60F9E7E40E002010B5830727D003789A
:10290000002B26D00300032102E01A78002A1CD0F5
:1029100001330B42F9D119680F4A104C8A188A43C7
:1029200022420FD1043319680B4A8A188A43224283
:1029300008D104331968084A8A188A432242F1D020
:1029400000E001331A78002AFBD1181A10BD0300E9
:10295000E1E70020FAE7C046FFFEFEFE80808080AF
:10296000F8B50C000600FFF7B1FF204FBB685D68AB
:1029700003239D431E4B2C1B9C466444240B1D4B80
:10298000013C24039C4207DD00213000FFF7A2FF39
:10299000BB685B19984204D03000FFF799FF002014
:1029A000F8BD61423000FFF795FF431C0DD00122B6
:1029B000BB682D1B15435D600F4B30001A68141B5C
:1029C0001C60FFF785FF0120EAE700213000FFF7D8
:1029D00081FFBA68831A0F2BDEDD08490968401AA7
:1029E0000549086001210B435360D5E7A806002084
:1029F000EF0F0000FF0F0000F00B0020A0060020EA
:102A0000F0B5D6464F4646460500C0B50C1E5CD014
:102A1000FFF75CFF210008394F6801243B000322C7
:102A2000A343C81846689643B146664EB2688242D0
:102A300000D175E04A464260821894463C4229D152
:102A40000F68C91B8A68DB199046624657680822DE
:102A500094462740B444BA46E04556D0CA689446E6
:102A600042466746D7606246474697605246002A0C
:102A700013D101224B44CF18BC468468524F1A43ED
:102A8000BC4200D17AE0C068E06084604A6062467F
:102A9000136005E057682742EBD01C434C6003608D
:102AA0004A4A934216D8DB08FF3A9810FF3A824010
:102AB0007068DB00024372609E19B368CE608B6061
:102AC000B160D9602800FFF703FF1CBC904699460F
:102AD000A246F0BD5C0A042C3AD89C092000393487
:102AE0003830E4003419083CA268032794423ED0F1
:102AF0005068B843984202D992689442F8D1D46899
:102B0000CC608A60A160D160DCE7002F55D1C2683B
:102B10004B4480681C43C26090604C60CB50D1E74E
:102B20004B443C4206D10A68891A88689B18CA68D7
:102B3000C260906001221A434A60254AB16012685F
:102B40009A42BFD8234B28001968FFF709FFB9E75D
:102B5000142C07D9542C19D81C0B20006F346E305C
:102B6000E400BFE720005C345B30E400BAE70123F7
:102B700080108340706803437360C1E7E160A16027
:102B80004A606246CC608C6013609BE7AA204000DC
:102B9000844205D8DC0B200078347730E400A1E7CC
:102BA0000D48844205D89C0C20007D347C30E40024
:102BB00098E7FE247E20A40094E71C434C60036049
:102BC00080E7C046A8060020B0060020FF010000F4
:102BD000A4060020EC0B002054050000F8B5C04608
:102BE00001B40248844601BC604700BF7101002067
:102BF00001B40248844601BC604700BF990100202F
:102C000001B40248844601BC604700BFC1000020F7
:102C1000486172647761726520616C61726D202514
:102C20006420616C726561647920636C61696D65B3
:102C3000640000000A2A2A2A2050414E4943202AD3
:102C40002A2A0A000A000000486172642061737336
:102C5000657274004F7574206F66206D656D6F72BC
:102C60007900000052656C6561736500626F6F7476
:102C7000325F77323571303830000000312E352E1A
:102C8000300000007069636F000000007061796CB3
:102C90006F61640041707220203420323032330082
:102CA00006005250BBFF3CB6842C00100600525068
:102CB000E182887F6C2C001006005250D3F07542E0
:102CC000642C00100D0A00005541525420737464A6
:102CD000696E000055415254207374646F7574001E
:102CE0005541525420737464696E202F20737464AC
:102CF0006F7574000600525053B4F4A1E02C00101C
:082D000008005250920000008F
:102D0800AC020010A002001094020010A02C0010C9
:102D180088020010AC2C0010B82C0010F42C001005
:042D2800002D00106A
:102D2C00F0B5C646150000B504001E000268EFF3AE
:102D3C00108172B61368002BFCD0BFF35F8F042395
:102D4C00E356002B36DB2268BFF35F8F0020106048
:102D5C0081F31088D02200271206D7579F4203D147
:102D6C00002004BC9046F0BD002398460CE022687D
:102D7C00BFF35F8F4146116083F310882800310048
:102D8C0000F03EF80028EBD12268EFF3108372B606
:102D9C0011680029FCD0BFF35F8F22797F2AE6D916
:102DAC0022682771BFF35F8F0021116083F31088B5
:102DBC000120D6E7D0231B061B6823712368BFF3C1
:102DCC005F8F00221A6081F310880120C9E7C0468A
:102DDC000268EFF3108172B61368002BFCD0BFF3BE
:102DEC005F8FFF2303710368BFF35F8F00221A60AC
:102DFC0081F3108840BF70477047C0460000000048
:102E0C0001B40248844601BC604700BF150E001097
:102E1C001000000000000000000001000000000095
:102E2C000000000000000200000000000000000094
:102E3C000000030000000000000000000000FF0084
:102E4C000000000001B5486801318E46004770460D
:102E5C0009380149884701BD6D0600101402002095
:102E6C0000000000D00A0020600C002000000000D0
:102E7C0000000000700C00200000000000000000AA
:102E8C001000000000000000000000000000000026
:102E9C00503300004C330000543300005233000018
:102EAC004D5300004D4300005334000043340000E8
:102EBC00B92000100000000005210010B121001005
:102ECC000000000000010000004004400000000071
:102EDC0078020020000000000000000064050020C3
:102EEC00CC0500203406002000000000000000008B
:102EFC0000000000000000000000000000000000C6
:102F0C0000000000000000000000000000000000B5
:102F1C0000000000000000000000000000000000A5
:102F2C000000000000000000000000000000000095
:102F3C000000000000000000000000000000000085
:102F4C000000000000000000000000000000000075
:102F5C000000000000000000000000000000000065
:102F6C000000000000000000000000000000000055
:102F7C000000000000000000000000000000000045
:102F8C0001000000000000000E33CDAB34126DE6E2
:102F9C00ECDE05000B00000000000000000000004B
:102FAC000000000000000000000000000000000015
:102FBC000000000000000000000000000000000005
:102FCC0000000000000000000000000000000000F5
:102FDC0000000000000000000000000000000000E5
:10330C00FFFFFFFF000002000000000000000000B3
:10331C00A8060020A8060020B0060020B006002059
:10332C00B8060020B8060020C0060020C006002009
:10333C00C8060020C8060020D0060020D0060020B9
:10334C00D8060020D8060020E0060020E006002069
:10335C00E8060020E8060020F0060020F006002019
:10336C00F8060020F80600200007002000070020C7
:10337C000807002008070020100700201007002075
:10338C001807002018070020200700202007002025
:10339C0028070020280700203007002030070020D5
:1033AC003807002038070020400700204007002085
:1033BC004807002048070020500700205007002035
:1033CC0058070020580700206007002060070020E5
:1033DC006807002068070020700700207007002095
:1033EC007807002078070020800700208007002045
:1033FC0088070020880700209007002090070020F5
:10340C009807002098070020A0070020A0070020A4
:10341C00A8070020A8070020B0070020B007002054
:10342C00B8070020B8070020C0070020C007002004
:10343C00C8070020C8070020D0070020D0070020B4
:10344C00D8070020D8070020E0070020E007002064
:10345C00E8070020E8070020F0070020F007002014
:10346C00F8070020F80700200008002000080020C2
:10347C000808002008080020100800201008002070
:10348C001808002018080020200800202008002020
:10349C0028080020280800203008002030080020D0
:1034AC003808002038080020400800204008002080
:1034BC004808002048080020500800205008002030
:1034CC0058080020580800206008002060080020E0
:1034DC006808002068080020700800207008002090
:1034EC007808002078080020800800208008002040
:1034FC0088080020880800209008002090080020F0
:10350C009808002098080020A0080020A00800209F
:10351C00A8080020A8080020B0080020B00800204F
:10352C00B8080020B8080020C0080020C0080020FF
:10353C00C8080020C8080020D0080020D0080020AF
:10354C00D8080020D8080020E0080020E00800205F
:10355C00E8080020E8080020F0080020F00800200F
:10356C00F8080020F80800200009002000090020BD
:10357C00080900200809002010090020100900206B
:10358C00180900201809002020090020200900201B
:10359C0028090020280900203009002030090020CB
:1035AC00380900203809002040090020400900207B
:1035BC00480900204809002050090020500900202B
:1035CC0058090020580900206009002060090020DB
:1035DC00680900206809002070090020700900208B
:1035EC00780900207809002080090020800900203B
:1035FC0088090020880900209009002090090020EB
:10360C009809002098090020A0090020A00900209A
:10361C00A8090020A8090020B0090020B00900204A
:10362C00B8090020B8090020C0090020C0090020FA
:10363C00C8090020C8090020D0090020D0090020AA
:10364C00D8090020D8090020E0090020E00900205A
:10365C00E8090020E8090020F0090020F00900200A
:10366C00F8090020F8090020000A0020000A0020B8
:10367C00080A0020080A0020100A0020100A002066
:10368C00180A0020180A0020200A0020200A002016
:10369C00280A0020280A0020300A0020300A0020C6
:1036AC00380A0020380A0020400A0020400A002076
:1036BC00480A0020480A0020500A0020500A002026
:1036CC00580A0020580A0020600A0020600A0020D6
:1036DC00680A0020680A0020700A0020700A002086
:1036EC00780A0020780A0020800A0020800A002036
:1036FC00880A0020880A0020900A0020900A0020E6
:10370C00980A0020980A0020A00A0020A00A002095
:10371C000000000000000000E51D0010591B001007
:0C372C00111C0010311D001031030010B2
:04000005100001E9FD
:00000001FF
